{
  "contractName": "Marketplace",
  "abi": [
    {
      "inputs": [],
      "payable": false,
      "stateMutability": "nonpayable",
      "type": "constructor"
    },
    {
      "anonymous": false,
      "inputs": [
        {
          "indexed": false,
          "internalType": "uint256",
          "name": "id",
          "type": "uint256"
        },
        {
          "indexed": false,
          "internalType": "string",
          "name": "name",
          "type": "string"
        },
        {
          "indexed": false,
          "internalType": "uint256",
          "name": "price",
          "type": "uint256"
        },
        {
          "indexed": false,
          "internalType": "address payable",
          "name": "owner",
          "type": "address"
        },
        {
          "indexed": false,
          "internalType": "bool",
          "name": "purchased",
          "type": "bool"
        },
        {
          "indexed": false,
          "internalType": "bool",
          "name": "forSale",
          "type": "bool"
        }
      ],
      "name": "ProductCreated",
      "type": "event"
    },
    {
      "anonymous": false,
      "inputs": [
        {
          "indexed": false,
          "internalType": "uint256",
          "name": "id",
          "type": "uint256"
        },
        {
          "indexed": false,
          "internalType": "string",
          "name": "name",
          "type": "string"
        },
        {
          "indexed": false,
          "internalType": "uint256",
          "name": "price",
          "type": "uint256"
        },
        {
          "indexed": false,
          "internalType": "address payable",
          "name": "owner",
          "type": "address"
        },
        {
          "indexed": false,
          "internalType": "bool",
          "name": "purchased",
          "type": "bool"
        },
        {
          "indexed": false,
          "internalType": "bool",
          "name": "forSale",
          "type": "bool"
        }
      ],
      "name": "ProductPurchased",
      "type": "event"
    },
    {
      "anonymous": false,
      "inputs": [
        {
          "indexed": false,
          "internalType": "uint256",
          "name": "id",
          "type": "uint256"
        },
        {
          "indexed": false,
          "internalType": "string",
          "name": "name",
          "type": "string"
        },
        {
          "indexed": false,
          "internalType": "uint256",
          "name": "price",
          "type": "uint256"
        },
        {
          "indexed": false,
          "internalType": "address payable",
          "name": "owner",
          "type": "address"
        },
        {
          "indexed": false,
          "internalType": "bool",
          "name": "purchased",
          "type": "bool"
        },
        {
          "indexed": false,
          "internalType": "bool",
          "name": "forSale",
          "type": "bool"
        }
      ],
      "name": "ProductUpdated",
      "type": "event"
    },
    {
      "constant": true,
      "inputs": [],
      "name": "name",
      "outputs": [
        {
          "internalType": "string",
          "name": "",
          "type": "string"
        }
      ],
      "payable": false,
      "stateMutability": "view",
      "type": "function"
    },
    {
      "constant": true,
      "inputs": [],
      "name": "productCount",
      "outputs": [
        {
          "internalType": "uint256",
          "name": "",
          "type": "uint256"
        }
      ],
      "payable": false,
      "stateMutability": "view",
      "type": "function"
    },
    {
      "constant": true,
      "inputs": [
        {
          "internalType": "uint256",
          "name": "",
          "type": "uint256"
        }
      ],
      "name": "products",
      "outputs": [
        {
          "internalType": "uint256",
          "name": "id",
          "type": "uint256"
        },
        {
          "internalType": "string",
          "name": "name",
          "type": "string"
        },
        {
          "internalType": "uint256",
          "name": "price",
          "type": "uint256"
        },
        {
          "internalType": "address payable",
          "name": "owner",
          "type": "address"
        },
        {
          "internalType": "bool",
          "name": "purchased",
          "type": "bool"
        },
        {
          "internalType": "bool",
          "name": "forSale",
          "type": "bool"
        }
      ],
      "payable": false,
      "stateMutability": "view",
      "type": "function"
    },
    {
      "constant": true,
      "inputs": [],
      "name": "getOwner",
      "outputs": [
        {
          "internalType": "address",
          "name": "",
          "type": "address"
        }
      ],
      "payable": false,
      "stateMutability": "view",
      "type": "function"
    },
    {
      "constant": true,
      "inputs": [],
      "name": "getBalance",
      "outputs": [
        {
          "internalType": "uint256",
          "name": "",
          "type": "uint256"
        }
      ],
      "payable": false,
      "stateMutability": "view",
      "type": "function"
    },
    {
      "constant": false,
      "inputs": [
        {
          "internalType": "string",
          "name": "_name",
          "type": "string"
        },
        {
          "internalType": "uint256",
          "name": "_price",
          "type": "uint256"
        },
        {
          "internalType": "bool",
          "name": "_forSale",
          "type": "bool"
        }
      ],
      "name": "createProduct",
      "outputs": [],
      "payable": false,
      "stateMutability": "nonpayable",
      "type": "function"
    },
    {
      "constant": false,
      "inputs": [
        {
          "internalType": "uint256",
          "name": "_id",
          "type": "uint256"
        },
        {
          "internalType": "uint256",
          "name": "_price",
          "type": "uint256"
        },
        {
          "internalType": "bool",
          "name": "_forSale",
          "type": "bool"
        }
      ],
      "name": "updateProduct",
      "outputs": [],
      "payable": false,
      "stateMutability": "nonpayable",
      "type": "function"
    },
    {
      "constant": false,
      "inputs": [
        {
          "internalType": "uint256",
          "name": "_id",
          "type": "uint256"
        }
      ],
      "name": "purchaseProduct",
      "outputs": [],
      "payable": true,
      "stateMutability": "payable",
      "type": "function"
    }
  ],
  "bytecode": "0x608060405260006003553480156200001657600080fd5b506040518060400160405280601481526020017f457468657269756d204d61726b6574706c6163650000000000000000000000008152506002908051906020019062000064929190620000ab565b50336000806101000a81548173ffffffffffffffffffffffffffffffffffffffff021916908373ffffffffffffffffffffffffffffffffffffffff1602179055506200015a565b828054600181600116156101000203166002900490600052602060002090601f016020900481019282601f10620000ee57805160ff19168380011785556200011f565b828001600101855582156200011f579182015b828111156200011e57825182559160200191906001019062000101565b5b5090506200012e919062000132565b5090565b6200015791905b808211156200015357600081600090555060010162000139565b5090565b90565b611614806200016a6000396000f3fe60806040526004361061007b5760003560e01c80637acc0b201161004e5780637acc0b20146101ba578063893d20e8146102c5578063e0f6ef871461031c578063fe6b6e67146103475761007b565b80630384a08f1461008057806306fdde03146100d157806312065fe01461016157806338e76a031461018c575b600080fd5b34801561008c57600080fd5b506100cf600480360360608110156100a357600080fd5b810190808035906020019092919080359060200190929190803515159060200190929190505050610425565b005b3480156100dd57600080fd5b506100e6610863565b6040518080602001828103825283818151815260200191508051906020019080838360005b8381101561012657808201518184015260208101905061010b565b50505050905090810190601f1680156101535780820380516001836020036101000a031916815260200191505b509250505060405180910390f35b34801561016d57600080fd5b50610176610901565b6040518082815260200191505060405180910390f35b6101b8600480360360208110156101a257600080fd5b8101908080359060200190929190505050610941565b005b3480156101c657600080fd5b506101f3600480360360208110156101dd57600080fd5b8101908080359060200190929190505050611030565b60405180878152602001806020018681526020018573ffffffffffffffffffffffffffffffffffffffff1673ffffffffffffffffffffffffffffffffffffffff1681526020018415151515815260200183151515158152602001828103825287818151815260200191508051906020019080838360005b8381101561028557808201518184015260208101905061026a565b50505050905090810190601f1680156102b25780820380516001836020036101000a031916815260200191505b5097505050505050505060405180910390f35b3480156102d157600080fd5b506102da61113e565b604051808273ffffffffffffffffffffffffffffffffffffffff1673ffffffffffffffffffffffffffffffffffffffff16815260200191505060405180910390f35b34801561032857600080fd5b50610331611167565b6040518082815260200191505060405180910390f35b34801561035357600080fd5b506104236004803603606081101561036a57600080fd5b810190808035906020019064010000000081111561038757600080fd5b82018360208201111561039957600080fd5b803590602001918460018302840111640100000000831117156103bb57600080fd5b91908080601f016020809104026020016040519081016040528093929190818152602001838380828437600081840152601f19601f8201169050808301925050505050505091929192908035906020019092919080351515906020019092919050505061116d565b005b61042d61144c565b600460008581526020019081526020016000206040518060c001604052908160008201548152602001600182018054600181600116156101000203166002900480601f0160208091040260200160405190810160405280929190818152602001828054600181600116156101000203166002900480156104ee5780601f106104c3576101008083540402835291602001916104ee565b820191906000526020600020905b8154815290600101906020018083116104d157829003601f168201915b50505050508152602001600282015481526020016003820160009054906101000a900473ffffffffffffffffffffffffffffffffffffffff1673ffffffffffffffffffffffffffffffffffffffff1673ffffffffffffffffffffffffffffffffffffffff1681526020016003820160149054906101000a900460ff161515151581526020016003820160159054906101000a900460ff1615151515815250509050806060015173ffffffffffffffffffffffffffffffffffffffff163373ffffffffffffffffffffffffffffffffffffffff1614610617576040517f08c379a00000000000000000000000000000000000000000000000000000000081526004018080602001828103825260388152602001806115876038913960400191505060405180910390fd5b60008311610670576040517f08c379a00000000000000000000000000000000000000000000000000000000081526004018080602001828103825260238152602001806115646023913960400191505060405180910390fd5b82816040018181525050818160a001901515908115158152505080600460008681526020019081526020016000206000820151816000015560208201518160010190805190602001906106c492919061149c565b506040820151816002015560608201518160030160006101000a81548173ffffffffffffffffffffffffffffffffffffffff021916908373ffffffffffffffffffffffffffffffffffffffff16021790555060808201518160030160146101000a81548160ff02191690831515021790555060a08201518160030160156101000a81548160ff0219169083151502179055509050507f51cea1a325c5c24eb4ac938f352fffab14e6fead8ae73271050d7708c0d4c8e784826020015185846060015185608001518760405180878152602001806020018681526020018573ffffffffffffffffffffffffffffffffffffffff1673ffffffffffffffffffffffffffffffffffffffff1681526020018415151515815260200183151515158152602001828103825287818151815260200191508051906020019080838360005b8381101561081e578082015181840152602081019050610803565b50505050905090810190601f16801561084b5780820380516001836020036101000a031916815260200191505b5097505050505050505060405180910390a150505050565b60028054600181600116156101000203166002900480601f0160208091040260200160405190810160405280929190818152602001828054600181600116156101000203166002900480156108f95780601f106108ce576101008083540402835291602001916108f9565b820191906000526020600020905b8154815290600101906020018083116108dc57829003601f168201915b505050505081565b60008060009054906101000a900473ffffffffffffffffffffffffffffffffffffffff1673ffffffffffffffffffffffffffffffffffffffff1631905090565b61094961144c565b600460008381526020019081526020016000206040518060c001604052908160008201548152602001600182018054600181600116156101000203166002900480601f016020809104026020016040519081016040528092919081815260200182805460018160011615610100020316600290048015610a0a5780601f106109df57610100808354040283529160200191610a0a565b820191906000526020600020905b8154815290600101906020018083116109ed57829003601f168201915b50505050508152602001600282015481526020016003820160009054906101000a900473ffffffffffffffffffffffffffffffffffffffff1673ffffffffffffffffffffffffffffffffffffffff1673ffffffffffffffffffffffffffffffffffffffff1681526020016003820160149054906101000a900460ff161515151581526020016003820160159054906101000a900460ff161515151581525050905060008160600151905060008260000151118015610ace5750600354826000015111155b610b40576040517f08c379a00000000000000000000000000000000000000000000000000000000081526004018080602001828103825260148152602001807f496e7369726120756d2049442076c3a16c69646f00000000000000000000000081525060200191505060405180910390fd5b600115158260a00151151514610bbe576040517f08c379a000000000000000000000000000000000000000000000000000000000815260040180806020018281038252601b8152602001807f50726f6475746f206ec3a36f20657374c3a120c3a02076656e6461000000000081525060200191505060405180910390fd5b8160400151341015610c38576040517f08c379a000000000000000000000000000000000000000000000000000000000815260040180806020018281038252601e8152602001807f5472616e73666972612061207175616e74696461646520636f7272657461000081525060200191505060405180910390fd5b816080015115610cb0576040517f08c379a00000000000000000000000000000000000000000000000000000000081526004018080602001828103825260188152602001807f50726f6475746f206ac3a120666f6920636f6d707261646f000000000000000081525060200191505060405180910390fd5b8073ffffffffffffffffffffffffffffffffffffffff163373ffffffffffffffffffffffffffffffffffffffff161415610d35576040517f08c379a00000000000000000000000000000000000000000000000000000000081526004018080602001828103825260228152602001806115426022913960400191505060405180910390fd5b33826060019073ffffffffffffffffffffffffffffffffffffffff16908173ffffffffffffffffffffffffffffffffffffffff1681525050600182608001901515908115158152505060008260a00190151590811515815250508160046000858152602001908152602001600020600082015181600001556020820151816001019080519060200190610dc992919061149c565b506040820151816002015560608201518160030160006101000a81548173ffffffffffffffffffffffffffffffffffffffff021916908373ffffffffffffffffffffffffffffffffffffffff16021790555060808201518160030160146101000a81548160ff02191690831515021790555060a08201518160030160156101000a81548160ff02191690831515021790555090505060646005340281610e6b57fe5b046001819055508073ffffffffffffffffffffffffffffffffffffffff166108fc60015434039081150290604051600060405180830381858888f19350505050158015610ebc573d6000803e3d6000fd5b506000809054906101000a900473ffffffffffffffffffffffffffffffffffffffff1673ffffffffffffffffffffffffffffffffffffffff166108fc6001549081150290604051600060405180830381858888f19350505050158015610f26573d6000803e3d6000fd5b507f30fe1766f4be498b4b6e89a857a816b991b86ede45bd1a0f89a34cebccbd796d60035483602001518460400151336001600060405180878152602001806020018681526020018573ffffffffffffffffffffffffffffffffffffffff1673ffffffffffffffffffffffffffffffffffffffff1681526020018415151515815260200183151515158152602001828103825287818151815260200191508051906020019080838360005b83811015610fec578082015181840152602081019050610fd1565b50505050905090810190601f1680156110195780820380516001836020036101000a031916815260200191505b5097505050505050505060405180910390a1505050565b6004602052806000526040600020600091509050806000015490806001018054600181600116156101000203166002900480601f0160208091040260200160405190810160405280929190818152602001828054600181600116156101000203166002900480156110e25780601f106110b7576101008083540402835291602001916110e2565b820191906000526020600020905b8154815290600101906020018083116110c557829003601f168201915b5050505050908060020154908060030160009054906101000a900473ffffffffffffffffffffffffffffffffffffffff16908060030160149054906101000a900460ff16908060030160159054906101000a900460ff16905086565b60008060009054906101000a900473ffffffffffffffffffffffffffffffffffffffff16905090565b60035481565b60008351116111c7576040517f08c379a00000000000000000000000000000000000000000000000000000000081526004018080602001828103825260218152602001806115bf6021913960400191505060405180910390fd5b60008211611220576040517f08c379a00000000000000000000000000000000000000000000000000000000081526004018080602001828103825260238152602001806115646023913960400191505060405180910390fd5b6003600081548092919060010191905055506040518060c0016040528060035481526020018481526020018381526020013373ffffffffffffffffffffffffffffffffffffffff1681526020016000151581526020018215158152506004600060035481526020019081526020016000206000820151816000015560208201518160010190805190602001906112b792919061149c565b506040820151816002015560608201518160030160006101000a81548173ffffffffffffffffffffffffffffffffffffffff021916908373ffffffffffffffffffffffffffffffffffffffff16021790555060808201518160030160146101000a81548160ff02191690831515021790555060a08201518160030160156101000a81548160ff0219169083151502179055509050507fc7874741d6d69988c1782a4eb1fdeff8733853cb23ed70504ede1763de6fbd7560035484843360008660405180878152602001806020018681526020018573ffffffffffffffffffffffffffffffffffffffff1673ffffffffffffffffffffffffffffffffffffffff1681526020018415151515815260200183151515158152602001828103825287818151815260200191508051906020019080838360005b838110156114085780820151818401526020810190506113ed565b50505050905090810190601f1680156114355780820380516001836020036101000a031916815260200191505b5097505050505050505060405180910390a1505050565b6040518060c00160405280600081526020016060815260200160008152602001600073ffffffffffffffffffffffffffffffffffffffff1681526020016000151581526020016000151581525090565b828054600181600116156101000203166002900490600052602060002090601f016020900481019282601f106114dd57805160ff191683800117855561150b565b8280016001018555821561150b579182015b8281111561150a5782518255916020019190600101906114ef565b5b509050611518919061151c565b5090565b61153e91905b8082111561153a576000816000905550600101611522565b5090565b9056fe436f6d707261646f72206ec3a36f20706f646520736572206f2076656e6465646f72496e7369726120756d20707265c3a76f2064652070726f6475746f2076c3a16c69646f536f6d656e74652070726f7072696574c3a172696f20706f73737569207065726d697373c3a36f20646520616c7465726172206461646f73496e7369726120756d206e6f6d652064652070726f6475746f2076c3a16c69646fa265627a7a72315820bafd41cbda2c03ef6e609cf83b16d8c89d826cd6b8304a3c6588b9c1e966da3564736f6c63430005100032",
  "source": "pragma solidity ^0.5.0;\r\n\r\ncontract Marketplace {\r\n  address payable private owner;\r\n  uint private tax;\r\n  string public name;\r\n  uint public productCount=0;\r\n  mapping(uint => Product) public products;\r\n\r\n  struct Product {\r\n    uint id;\r\n    string name;\r\n    uint price;\r\n    address payable owner;\r\n    bool purchased;\r\n    bool forSale;\r\n  }\r\n\r\n  event ProductCreated (\r\n    uint id,\r\n    string name,\r\n    uint price,\r\n    address payable owner,\r\n    bool purchased,\r\n    bool forSale\r\n  );\r\n\r\n  event ProductPurchased (\r\n    uint id,\r\n    string name,\r\n    uint price,\r\n    address payable owner,\r\n    bool purchased,\r\n    bool forSale\r\n  );\r\n\r\n  event ProductUpdated (\r\n    uint id,\r\n    string name,\r\n    uint price,\r\n    address payable owner,\r\n    bool purchased,\r\n    bool forSale\r\n  );\r\n\r\n  constructor() public {\r\n    name = \"Etherium Marketplace\";\r\n    owner = msg.sender;\r\n  }\r\n\r\n  function getOwner() public view returns(address) {    \r\n    return owner;\r\n  }\r\n\r\n  function getBalance() public view returns(uint256) {\r\n    return owner.balance;\r\n  }\r\n\r\n  function createProduct(string memory _name, uint _price, bool _forSale) public {\r\n    // Nome do Produto obrigatório\r\n    require(bytes(_name).length > 0, \"Insira um nome de produto válido\");\r\n    // Preço válido obrigatório\r\n    require(_price > 0, \"Insira um preço de produto válido\");\r\n    // Incrementa o contador de produto\r\n    productCount++;\r\n    // Cria o Produto\r\n    products[productCount] = Product(productCount, _name, _price, msg.sender, false, _forSale);\r\n    // Aciona evento de criação de produto\r\n    emit ProductCreated(productCount, _name, _price, msg.sender, false, _forSale);\r\n  }\r\n\r\n  function updateProduct(uint _id, uint _price, bool _forSale) public {\r\n    // Busca o produto e faz uma cópia dele\r\n    Product memory _product = products[_id];\r\n    // Verifica se é o proprietário do produto\r\n    require(msg.sender == _product.owner, \"Somente proprietário possui permissão de alterar dados\");\r\n    // Preço válido obrigatório\r\n    require(_price > 0, \"Insira um preço de produto válido\");\r\n    \r\n    // Atualiza Produto com novos valores.\r\n    _product.price = _price;\r\n    _product.forSale = _forSale;\r\n    products[_id] = _product;\r\n    // Aciona um evento de alteração de produto\r\n    emit ProductUpdated(_id, _product.name, _price, _product.owner, _product.purchased, _forSale);\r\n  }\r\n\r\n  function purchaseProduct(uint _id) public payable {\r\n    // Busca o produto e faz uma cópia dele\r\n    Product memory _product = products[_id];\r\n    // Busca o dono\r\n    address payable _seller = _product.owner;\r\n    // Verifica se o produto possui um id válido\r\n    require(_product.id > 0 && _product.id <= productCount, \"Insira um ID válido\");\r\n    // VErifica se o produto está a venda\r\n    require(_product.forSale == true, \"Produto não está à venda\");\r\n    // Requer que haja Ether suficiente na transação\r\n    require(msg.value >= _product.price, \"Transfira a quantidade correta\");\r\n    // Requer que o produto ainda não tenha sido comprado\r\n    require(!_product.purchased, \"Produto já foi comprado\");\r\n    // Requer que o comprador não seja o vendedor\r\n    require(msg.sender != _seller, \"Comprador não pode ser o vendedor\");\r\n    // Transfere a propriedade do produto ao comprador\r\n    _product.owner = msg.sender;\r\n    // Marca o produto como comprado\r\n    _product.purchased = true;\r\n    // Marca o produto como não disponível para venda\r\n    _product.forSale = false;\r\n    // Atualiza o produto\r\n    products[_id] = _product;\r\n\r\n    // Calcula taxa que será enviada para o dono do contrato\r\n    tax = (msg.value*5)/100;\r\n    // Transfere 95% do valor (em Ether) para o vendedor\r\n    address(_seller).transfer(msg.value-tax);\r\n    // Transfere 5% do valor (em Ether) para o publicador do contrato\r\n    address(owner).transfer(tax);\r\n\r\n    // Aciona um evento de compra de produto\r\n    emit ProductPurchased(productCount, _product.name, _product.price, msg.sender, true, false);\r\n  }\r\n}\r\n",
  "sourcePath": "C:\\Users\\cviei\\Desktop\\Aplicações Descentralizadas e Blockchain\\app\\ethereum-marketplace-app\\src\\contracts\\Marketplace.sol",
  "compiler": {
    "name": "solc",
    "version": "0.5.16+commit.9c3226ce.Emscripten.clang"
  },
  "schemaVersion": "3.4.4",
  "updatedAt": "2021-12-20T00:20:57.145Z",
  "networkType": "ethereum",
  "devdoc": {
    "methods": {}
  },
  "userdoc": {
    "methods": {}
  }
}